{
  "contractName": "Subscribium",
  "abi": [
    {
      "inputs": [
        {
          "internalType": "address",
          "name": "_publisher",
          "type": "address"
        }
      ],
      "stateMutability": "nonpayable",
      "type": "constructor"
    },
    {
      "inputs": [],
      "name": "publisher",
      "outputs": [
        {
          "internalType": "address",
          "name": "",
          "type": "address"
        }
      ],
      "stateMutability": "view",
      "type": "function",
      "constant": true
    },
    {
      "inputs": [],
      "name": "usdc",
      "outputs": [
        {
          "internalType": "address",
          "name": "",
          "type": "address"
        }
      ],
      "stateMutability": "view",
      "type": "function",
      "constant": true
    },
    {
      "inputs": [
        {
          "internalType": "uint256",
          "name": "_interval",
          "type": "uint256"
        },
        {
          "internalType": "uint256",
          "name": "_value",
          "type": "uint256"
        }
      ],
      "name": "Subscribe",
      "outputs": [],
      "stateMutability": "nonpayable",
      "type": "function"
    },
    {
      "inputs": [
        {
          "internalType": "address",
          "name": "_subscriber",
          "type": "address"
        }
      ],
      "name": "ExecuteSubscription",
      "outputs": [
        {
          "internalType": "bool",
          "name": "",
          "type": "bool"
        }
      ],
      "stateMutability": "nonpayable",
      "type": "function"
    }
  ],
  "bytecode": "0x608060405260018054600160a060020a03191673fda95ce44e948206aaf38cbe0af115ff9b8cd2e817905534801561003657600080fd5b5060405161056f38038061056f8339810160408190526100559161007a565b60008054600160a060020a031916600160a060020a03929092169190911790556100aa565b60006020828403121561008c57600080fd5b8151600160a060020a03811681146100a357600080fd5b9392505050565b6104b6806100b96000396000f3fe608060405234801561001057600080fd5b5060043610610068577c010000000000000000000000000000000000000000000000000000000060003504633e413bee811461006d5780638c72c54e1461009d578063ce5e3579146100b0578063f290eae2146100d3575b600080fd5b60015461008090600160a060020a031681565b604051600160a060020a0390911681526020015b60405180910390f35b60005461008090600160a060020a031681565b6100c36100be3660046103b4565b6100e8565b6040519015158152602001610094565b6100e66100e13660046103e4565b610248565b005b600160a060020a03811660009081526003602052604081205442101561010d57600080fd5b60018054600160a060020a038481166000818152600260205260408082209095015494517f23b872dd000000000000000000000000000000000000000000000000000000008152600481019290925230602483015260448201949094529116906323b872dd906064016020604051808303816000875af1158015610195573d6000803e3d6000fd5b505050506040513d601f19601f820116820180604052508101906101b99190610406565b905080151560010361020657600160a060020a0383166000908152600260205260409020546101e89042610428565b600160a060020a038416600090815260036020526040902055610242565b600160a060020a03831660009081526003602052604090207f800000000000000000000000000000000000000000000000000000000000000090555b92915050565b6001546040517fdd62ed3e000000000000000000000000000000000000000000000000000000008152336004820181905230602483015291600091600160a060020a039091169063dd62ed3e90604401602060405180830381865afa1580156102b5573d6000803e3d6000fd5b505050506040513d601f19601f820116820180604052508101906102d99190610467565b90508281101561036f576040517f08c379a000000000000000000000000000000000000000000000000000000000815260206004820152602260248201527f416c6c6f77616e636520697320746f20736d616c6c20746f207375627363726960448201527f6265000000000000000000000000000000000000000000000000000000000000606482015260840160405180910390fd5b506040805180820182529384526020808501938452600160a060020a039092166000908152600283528181209451855592516001909401939093556003905290812055565b6000602082840312156103c657600080fd5b8135600160a060020a03811681146103dd57600080fd5b9392505050565b600080604083850312156103f757600080fd5b50508035926020909101359150565b60006020828403121561041857600080fd5b815180151581146103dd57600080fd5b60008219821115610462577f4e487b7100000000000000000000000000000000000000000000000000000000600052601160045260246000fd5b500190565b60006020828403121561047957600080fd5b505191905056fea26469706673582212205727eff4c871601837824a952b06b8a1d98404c1551b0c49a327164f340aed1564736f6c634300080d0033",
  "immutableReferences": {},
  "source": "pragma solidity ^0.8.13;\nimport \"@openzeppelin/contracts/token/ERC20/ERC20.sol\";\n\ncontract Subscribium {\n    address public publisher;\n    address public usdc = 0xFda95Ce44E948206AaF38CBe0af115FF9B8cD2e8;\n\n    mapping(address => SubscriptionTerms) private subscribers;\n    mapping(address => uint256) nextValidTime;\n\n    struct SubscriptionTerms {\n        uint256 interval;\n        uint256 value;\n    }\n\n    constructor(address _publisher) {\n        publisher = _publisher;\n    }\n\n    function Subscribe(uint256 _interval, uint256 _value) public {\n        address subscriber = msg.sender;\n\n        uint256 allowance = ERC20(usdc).allowance(subscriber, address(this));\n        require(allowance >= _value, \"Allowance is to small to subscribe\");\n\n        SubscriptionTerms memory terms = SubscriptionTerms(_interval, _value);\n        subscribers[subscriber] = terms;\n        nextValidTime[subscriber] = 0;\n    }\n\n    function ExecuteSubscription(address _subscriber) public returns (bool) {\n        require(block.timestamp >= nextValidTime[_subscriber]);\n        bool result = ERC20(usdc).transferFrom(\n            _subscriber,\n            address(this),\n            subscribers[_subscriber].value\n        );\n\n        if (result == true) {\n            nextValidTime[_subscriber] =\n                block.timestamp +\n                subscribers[_subscriber].interval;\n        } else {\n            nextValidTime[_subscriber] = 2**255;\n        }\n\n        return result;\n    }\n\n    \n}",
  "sourcePath": "/Users/avishaybikowsky/blockchain/contracts/Subscribium.sol",
  "compiler": {
    "name": "solc",
    "version": "0.8.13+commit.abaa5c0e.Emscripten.clang"
  },
  "schemaVersion": "3.4.6",
  "updatedAt": "2022-04-17T20:57:04.986Z",
  "networkType": "ethereum",
  "devdoc": {
    "kind": "dev",
    "methods": {},
    "version": 1
  },
  "userdoc": {
    "kind": "user",
    "methods": {},
    "version": 1
  }
}